:020000040800F2
:1000000000000220B9020008BF020008C302000875
:1000100035030008390300088103000800000000D0
:10002000000000000000000000000000C9030008FC
:10003000CD03000800000000D103000811140008DF
:10004000E5030008E5030008E5030008E5030008F0
:10005000E5030008E5030008E5030008E5030008E0
:10006000E5030008E5030008E5030008E5030008D0
:10007000E5030008E5030008E5030008E5030008C0
:10008000E5030008E5030008E5030008E5030008B0
:10009000E5030008E5030008E5030008E5030008A0
:1000A000E5030008E5030008E5030008E503000890
:1000B000E5030008E5030008E5030008E503000880
:1000C000E5030008E5030008E5030008E503000870
:1000D000E5030008E5030008E5030008E503000860
:1000E000E5030008E5030008E5030008E503000850
:1000F000E5030008E5030008E5030008E503000840
:10010000E5030008E5030008E5030008E50300082F
:10011000E5030008E5030008E5030008E50300081F
:10012000E5030008E5030008E5030008E50300080F
:10013000E5030008E5030008E5030008E5030008FF
:10014000E5030008E5030008E5030008E5030008EF
:10015000E5030008E5030008E5030008E5030008DF
:10016000E5030008E5030008E5030008E5030008CF
:10017000E5030008E5030008E503000800000000AF
:10018000E5030008E503000800B583B000F0EAFFCE
:10019000384B394A1360394A1360394906E052F83E
:1001A000041B43F8041B9842F9D86146354B994229
:1001B00005D20A684B6801F10C0C8868F3E72E4BF6
:1001C0001A68314B9A4200D0FEE72C4B1A682F4B2D
:1001D0009A42F9D1274B2E4A13602E4A13602E4AB9
:1001E00000E002462D4B9A4209D2104650F8083BD7
:1001F00051689942F5D9002243F8042BF9E7244BC2
:100200001B6813B9234B1B6803B1FEE701F054F9D7
:10021000694601A800F034FF214C224BE41AA410D7
:10022000002504E01F4B53F8253098470135AC42B8
:10023000F8DC1D4C1D4BE41AA410002504E01B4BF8
:1002400053F8253098470135AC42F8DC0099019805
:1002500001F03AF90546164C164BE41AA41004E0D6
:10026000013C144B53F824309847002CF8DC284606
:1002700000F0D8FEBABADECA0000002088000020D4
:10028000E8030008000400087856341232547698C7
:100290008C00002030010020000400081004000839
:1002A00010040008100400081004000810040008DE
:1002B000100400081004000808B5FFF765FF00BE31
:1002C000FEE71EF0040F0CBFEFF30880EFF3098088
:1002D0007146414A10472DE9F04182B004460D466F
:1002E000124B5F6BD3F838809E6A1B6B13F0020FC2
:1002F00003D00E4BDB6A002B0BDB0D4800F0D2FE67
:10030000009543463A463146204600F037FF00BE8E
:10031000FEE74BF6AB6100F0ABFF0028EDD0034BDE
:100320004FF00042DA6202B0BDE8F08100ED00E07B
:100330008C21000800BEFEE71EF0040F0CBFEFF397
:100340000880EFF309807146244A10472DE9F041F7
:1003500082B004460D46084B5F6BD3F838809E6A26
:10036000064800F09FFE009543463A463146204637
:1003700000F004FF00BEFEE700ED00E09C21000855
:100380001EF0040F0CBFEFF30880EFF309807146F5
:10039000134A10472DE9F04182B004460D46084B40
:1003A0005F6BD3F838809E6A064800F07BFE0095AC
:1003B00043463A463146204600F0E0FE00BEFEE7E6
:1003C00000ED00E0A821000800BEFEE700BEFEE749
:1003D00000BEFEE770470000D70200084D0300088A
:0803E0009503000800BEFEE7D2
:1003E80054230008000000208C000020542300083B
:1003F80000000010000000108C00002034010020D4
:080408000000001000000010CC
:1004100010B50446074B1868074BA3FB0030800952
:1004200000F0AAF8002221464FF0FF3000F080F8DB
:10043000002010BD0C000020D34D621008B50B4BFE
:100440001A6842F400721A601A6842F480621A60F4
:100450001A6842F480721A60032000F04BF80F20F3
:10046000FFF7D6FF01F09AF8002008BD003C0240DB
:10047000024A136801331360704700BF90000020E8
:10048000014B1868704700BF90000020002808DB6F
:100490000901C9B200F1604000F5614080F8001325
:1004A000704700F00F000901C9B2014B19547047A1
:1004B00014ED00E000B500F00700C0F1070CBCF13E
:1004C000040F28BF4FF0040C031D062B0FD9C31EC9
:1004D0004FF0FF3E0EFA0CF021EA000199400EFAAF
:1004E00003FE22EA0E0241EA02005DF804FB00234B
:1004F000EEE7000010B50446C31E042B0FD80A4ACD
:10050000D36823F4E0631B041B0C240204F4E064AE
:10051000234343F0BF6343F40033D36010BDA421F1
:10052000024800F0B5FDEAE700ED00E08C1F00088E
:1005300070B506460C4615460F2A0ED80F2C11D85A
:100540000B4BD8682A462146C0F30220FFF7B2FFC2
:1005500001463046FFF79AFF70BDBC21054800F008
:1005600097FDEBE7BD21034800F092FDE8E700BFEF
:1005700000ED00E08C1F00080138B0F1807F0BD245
:100580004FF0E0235861054AF02182F82310002043
:10059000986107221A6170470120704700ED00E062
:1005A00008B5042807D068B94FF0E022136923F09A
:1005B0000403136108BD4FF0E022136943F0040304
:1005C0001361F7E740F2B311014800F061FDEBE77A
:1005D0008C1F00082DE9F04782B007460E46A94B54
:1005E000984223D003F5806398421FD003F58063BF
:1005F00098421BD003F58063984217D003F58063BF
:10060000984213D003F5806398420FD003F58063BE
:1006100098420BD003F58063984207D003F58063BE
:10062000984203D0C521984800F032FD33887BB151
:100630007368012B16D9954A934213D01AD8A2F5A4
:10064000801293420ED008D9914A93420AD01CE0FE
:10065000C6218D4800F01CFDEAE7032B07D9113BAA
:10066000012B12D8B368022B14D80024DEE0022B31
:100670000BD3F7E7874A9342F4D002F580329342D6
:10068000F0D0A2F580129342ECD0C7217E4800F052
:10069000FFFCE7E7C8217C4800F0FAFCE5E70F2BF8
:1006A00040F0DE80E208083257F8220004F007012B
:1006B00089000F238B4020EA030033698B400343FA
:1006C00047F822303A684FEA440A032303FA0AF350
:1006D0006FEA030922EA0302736803F0030303FAD3
:1006E0000AF313433B6073685A1E012A03D9112B86
:1006F00001D0122B13D1F368032B5AD8BA6809EA38
:100700000202F36803FA0AF31343BB607A6822EA31
:1007100005027368C3F30013A34013437B60FB68B7
:1007200009EA0309B36803FA0AF343EA0903FB6021
:10073000736813F0805F78D000230193564B5A6C96
:1007400042F480425A645B6C03F480430193019B42
:10075000A208911C514B53F8210004F003018900B9
:100760000F238B4020EA0300464B9F4228D003F51D
:1007700080639F4279D003F580639F4277D003F571
:1007800080639F4275D003F580639F4273D003F569
:1007900080639F4271D003F580639F426FD003F561
:1007A00080639F427ED003F580639F4206D0092379
:1007B00007E0EC21344800F06BFC9FE7082300E0E1
:1007C00000238B4003430232344941F82230344B3A
:1007D0001A686FEA080322EA0801706810F4803F83
:1007E00001D048EA02012E4A1160526803EA020170
:1007F000706810F4003F01D048EA0201284A5160B5
:10080000926803EA0201706810F4801F01D048EA80
:100810000201234A9160D2681340716811F4001FED
:1008200001D048EA02031E4AD36001340F2C3BD8A2
:100830000125A540336803EA050835EA0303F4D12E
:100840007368022B02D0122B7FF43CAF3369002B6C
:100850003FF428AF0D2B3FF622AF002B7FF422AFE1
:10086000D921094800F014FC1CE70123A9E7022361
:10087000A7E70323A5E70423A3E70523A1E70623AE
:100880009FE700BF00000240C01F000800002110C9
:100890000000121000003110003802400038014002
:1008A000003C014007238CE702B0BDE8F08700BFA1
:1008B00070B5054614460E4621B1012C08D86CB11E
:1008C000AE6170BD40F2B111064800F0E1FBF4E703
:1008D0004FF4D971034800F0DBFBF0E73604AE615A
:1008E000EFE700BFC01F000830B583B004460368BF
:1008F0000F2B29D8236813F0010F3DD06368012B1B
:1009000001D9052B25D1A34B9B6803F00C03042BC5
:1009100029D0A04B9B6803F00C03082B1ED0227932
:100920009C4B9A706368002B50D0FFF7A9FD0546D9
:10093000984B1B6813F4003F1ED1FFF7A1FD401B2D
:100940006428F5D90320E1E1F521934800F0A0FBEC
:10095000D0E7FA21904800F09BFBD4E78D4B5B6811
:1009600013F4800FDBD08B4B1B6813F4003F03D0D4
:100970006368002B00F0C581236813F0020F5BD081
:10098000E368012B31D823691F2B34D8814B9B6836
:1009900013F00C0F3AD07F4B9B6803F00C03082B2D
:1009A0002FD0E368002B72D07C4B01221A60FFF736
:1009B00067FD0546774B1B6813F0020F59D1FFF70F
:1009C0005FFD401B0228F5D903209FE1FFF758FD8A
:1009D0000546704B1B6813F4003FCDD0FFF750FD68
:1009E000401B6428F5D9032090E14FF496716A48C2
:1009F00000F04EFBC7E740F22D11674800F048FBBE
:100A0000C4E7644B5B6813F4800FCAD1614B1B6869
:100A100013F0020F03D0E368012B40F074815D48AE
:100A2000036823F0F8032169F82292FAA2F2B2FADD
:100A300082F291400B430360236813F0080F51D0FA
:100A40006369012B35D86369002B38D0534B0122E1
:100A5000C3F8802EFFF714FD05464E4B5B6F13F075
:100A6000020F3FD1FFF70CFD401B0228F5D90320F0
:100A70004CE14848036823F0F8032169F82292FA10
:100A8000A2F2B2FA82F291400B430360D4E7434BE7
:100A900000221A60FFF7F4FC05463E4B1B6813F07A
:100AA000020FC9D0FFF7ECFC401B0228F5D9032048
:100AB0002CE140F26D11384800F0EAFAC3E7374BF9
:100AC0000022C3F8802EFFF7DBFC0546314B5B6F3D
:100AD00013F0020F06D0FFF7D3FC401B0228F5D914
:100AE000032013E1236813F0040F5BD0A368012BEC
:100AF00001D9052B1FD100230193264B1A6C42F01C
:100B000080521A641B6C03F080530193019B244AAA
:100B1000136843F480731360FFF7B2FC0546204B63
:100B20001B6813F4807F0CD1FFF7AAFC401B02283E
:100B3000F5D90320EAE040F29711174800F0A8FA2F
:100B4000D9E7227A134B83F87020A36883B1FFF7AB
:100B500097FC05460F4B1B6F13F0020F22D1FFF7D6
:100B60008FFC401B41F288339842F3D90320CDE03B
:100B7000FFF786FC0546074B1B6F13F0020F11D0E1
:100B8000FFF77EFC401B41F288339842F3D90320E3
:100B9000BCE000BF00380240F01F000800004742E0
:100BA00000700040A369022B3CD8A369002B00F021
:100BB000AC80584A926802F00C02082A00F0A88023
:100BC000022B40F08A80E36913B1B3F5800F2FD177
:100BD000236A3F2B32D8636A323BB3F5BF7F33D8E9
:100BE000A36A022B08D0082B34D84FF4A87222FA3B
:100BF00003F313F0010F2DD0E36A043B0B2B2FD826
:100C0000454B00221A66FFF73BFC0546414B1B682B
:100C100013F0007F2AD0FFF733FC401B0228F5D9E0
:100C2000032073E04FF4E6713C4800F031FABCE772
:100C300040F2D511394800F02BFAC9E74FF4EB71B7
:100C4000364800F025FAC6E740F2D711334800F0E5
:100C50001FFAC5E74FF4EC71304800F019FACBE702
:100C600040F2D9112D4800F013FAC9E7E369226A6E
:100C70001343616A47F6C07292FAA2F2B2FA82F2A4
:100C800091400B43A26A5208013A4FF4403191FA65
:100C9000A1F1B1FA81F18A401343E16A4FF0706229
:100CA00092FAA2F2B2FA82F201FA02F21343194A5C
:100CB0005360194B01221A66FFF7E2FB0446154BFD
:100CC0001B6813F0007F06D1FFF7DAFB001B022838
:100CD000F5D903201AE0002018E00F4B00221A6615
:100CE000FFF7CEFB04460B4B1B6813F0007F06D0CA
:100CF000FFF7C6FB001B0228F5D9032006E0002001
:100D000004E0012002E0012000E0002003B030BD3B
:100D10000120FBE70038024000004742F01F0008B6
:100D2000224B9B6803F00C03042B3AD0082B3AD1DA
:100D30001E4A536803F03F03526812F4800F1FD01D
:100D40001B48B0FBF3F0194B5A6847F6C0731A40C2
:100D500093FAA3F3B3FA83F322FA03F303FB00F04D
:100D6000124B5B6803F440334FF4403292FAA2F224
:100D7000B2FA82F2D34001335B00B0FBF3F070476C
:100D80000C48B0FBF3F0094B5A6847F6C0731A40A1
:100D900093FAA3F3B3FA83F322FA03F303FB00F00D
:100DA000DEE7034870470348704700BF0038024041
:100DB00000127A000024F40070B504460D46036862
:100DC000013B0E2B1FD8072D23D88E4B1B6803F039
:100DD0000F03AB4208D2EBB28A4A1370136803F0D8
:100DE0000F03AB4240F00781236813F0020F21D0BC
:100DF000A368C3B1C02B16D04DD8A02B13D00ED9E9
:100E0000B02B10D04DE040F237217F4800F040F980
:100E1000D9E74FF40E717C4800F03AF9D5E7802B02
:100E200001D0902B3DD1794A936823F0F003A1685B
:100E30000B439360236813F0010F79D06368032B91
:100E400035D86368012B38D09A1E012A3CD96F4AE5
:100E5000126812F0020F00F0D0806C498A6822F00C
:100E6000030213438B60FFF70BFB06466368012BFD
:100E700031D0022B3ED0032B4BD0644B9B6813F038
:100E80000C0F55D0FFF7FCFA801B41F288339842D3
:100E9000F3D90320A2E0E02BC5D0F02BC3D0D02B98
:100EA000C1D040F24F21584800F0F2F8BBE740F2C1
:100EB0005621554800F0ECF8C3E7544A126812F482
:100EC000003FCAD1012089E0504A126812F0007F29
:100ED000C3D1012082E04D4B9B6803F00C03042B2F
:100EE00026D0FFF7CDFA831B41F288329342F2D924
:100EF000032073E0454B9B6803F00C03082B17D0CD
:100F0000FFF7BEFA801B41F288339842F2D90320E2
:100F100064E03E4B9B6803F00C030C2B08D0FFF7FA
:100F2000AFFA801B41F288339842F2D9032055E092
:100F3000344B1B6803F00F03AB4207D9EAB2314BC5
:100F40001A701B6803F00F03AB4258D1236813F0EB
:100F5000040F14D0E3685BB1B3F5805F08D0B3F53C
:100F6000A05F05D0B3F5C05F02D0B3F5E05F36D126
:100F7000264A936823F4E053E1680B4393602368A7
:100F800013F0080F15D023695BB1B3F5805F08D06B
:100F9000B3F5A05F05D0B3F5C05F02D0B3F5E05F55
:100FA00023D11A4A936823F46043216943EAC103B9
:100FB0009360FFF7B5FE154B9B6803F0F003F0223A
:100FC00092FAA2F2B2FA82F2D340114AD35CD8402C
:100FD000104B18600F20FFF71BFA002070BD4FF474
:100FE0002D71094800F054F8C2E740F2BB210648D1
:100FF00000F04EF8D5E70120F0E70120EEE70120F0
:10100000ECE700BF003C0240F01F0008003802403F
:10101000202000080C000020014B1868704700BF1A
:101020000C000020FEE7000008B5034800F054F86B
:101030000120FFF7F7FF00BF3020000808B5034686
:101040000C4A12685AB10B4A1068033323F00303A9
:101050000344094A934206D8064A136008BD054A6C
:1010600006491160EFE700F0D3FA0C2303604FF05C
:10107000FF30F3E79400002000FC01203401002041
:1010800001230360014B0B60704700BF0400002088
:1010900008B50A460146024800F004F8FFF7C4FF0D
:1010A000442000080FB400B583B004AB53F8042B00
:1010B00001938021074800F09DFA002804DC03B06A
:1010C0005DF804EB04B070470146024800F045F8B3
:1010D000F5E700BFA000002010B5044600F09EFA1E
:1010E0000146204600F039F80121024800F035F8A9
:1010F00010BD00BF082100082DE9F04385B004466B
:101100000F4643563BBB042528462146ABBE054649
:10111000384605B0BDE8F08314F901CB03F11002A5
:101120006A4402F810CC0133AB42F5D310336B4460
:10113000002203F8102C4FF00408E94640464946C7
:10114000ABBE8046761B002EE2D03546102E28BF5F
:1011500010250023E8E70E46F5E708B5FFF7CCFFBA
:1011600008BD000008B500F093F8024A024B9A60EF
:1011700008BD00BF0000000800ED00E0F8B504461F
:101180000D4617461E462748FFF78CFF2168264864
:10119000FFF788FF61682548FFF784FFA1682448AE
:1011A000FFF780FFE1682348FFF77CFF21692248B1
:1011B000FFF778FF61692148FFF774FFA1692048B4
:1011C000FFF770FFE1691F48FFF76CFF1E48FFF74C
:1011D00069FF29461D48FFF765FF1D4CE16A1D4860
:1011E000FFF760FF216B1C48FFF75CFFE16B1B48BA
:1011F000FFF758FF15F0800F0AD115F4004F0CD1FE
:101200001748FFF74FFF06991648FFF74BFFF8BD49
:1012100039461548FFF746FFEFE731461348FFF719
:1012200041FFEDE7702000088020000890200008B2
:10123000A0200008B0200008C0200008D02000082E
:10124000E0200008F0200008002100080C21000820
:1012500000ED00E01C2100082C2100083C210008C2
:101260006C210008742100084C2100085C21000852
:1012700083691A888A4201D0002070470268033AC5
:10128000012A01D900207047023383610120704791
:101290000C4B1A6842F001021A60002199601A682A
:1012A00022F0847222F480321A60074A5A601A6867
:1012B00022F480221A60D960044B4FF000629A60D9
:1012C000704700BF003802401030002400ED00E0FD
:1012D000224B9B6803F00C03042B14D0082B16D070
:1012E0001BB11F4B1F4A1A6002E01D4B1D4A1A60BA
:1012F0001A4B9B68C3F303131B4AD15C184A13684B
:10130000CB4013607047164B184A1A60F0E7134B36
:1013100059685A6802F03F0211F4800F13D0134B42
:10132000B3FBF2F30D4A5268C2F3881202FB03F3D7
:101330000A4A5268C2F3014201325200B3FBF2F38F
:10134000074A1360D4E7074BB3FBF2F3034A526832
:10135000C2F3881202FB03F3EAE700BF0038024041
:101360000C0000200024F400B821000800127A00CC
:1013700030B587B00C4A136B43F0080313634FF486
:101380008055019501230293022204920393074C96
:1013900001A92046FFF71EF9002229462046FFF743
:1013A00087FA07B030BD00BF00380240000C024091
:1013B0000A4B1B680A4AA2FB03239B09013BB3F1BA
:1013C000807F0AD24FF0E0225361064BF02183F870
:1013D0002310002393610723136170470C00002042
:1013E000D34D621000ED00E0034B1860024B1B6808
:1013F000002BFBD1704700BF20010020034B1B686E
:101400001BB1024A1368013B1360704720010020A2
:1014100008B5FFF72DF8FFF7F1FF08BD30B595B01F
:1014200000240194214B1A6C42F080521A641B6C08
:1014300003F080530193019B02941D4B1A6842F400
:1014400080421A601B6803F480430293029B0123CD
:10145000089309934FF480030F93082310934FF4DC
:10146000A873119302251295072313930E9508A8CC
:10147000FFF73AFA0F230393049505944FF4A05312
:1014800006934FF480530793052103A8FFF794FCBC
:10149000FFF7C2FD074BA3FB00308009FFF76CF894
:1014A0000420FFF77DF815B030BD00BF00380240C2
:1014B00000700040D34D621008B5FEF7BFFFFFF784
:1014C000ADFFFFF705FF08BD70B52948FFF704FE23
:1014D0002848FFF701FE284B19682848FFF7E2FD6E
:1014E000FFF766FFFFF744FF00252CE040F2EE20F7
:1014F000FFF77AFF00224FF480512148FFF7D8F917
:10150000FA20FFF771FF013529461E48FFF7CAFD93
:101510001D4CA4FB0534E40804EB84046300EC1ABE
:101520001A4E56F824101A48FFF7BCFD56F824301E
:10153000202B13DD01224FF480511148FFF7B8F939
:101540001448FFF7C9FD01224FF480510C48FFF702
:10155000AFF9002DCAD14FF47A70C9E700224FF4D9
:1015600080510748FFF7A4F90B48FFF7B5FDEAE7FC
:10157000C8210008EC2100080C00002030220008DF
:10158000000C024048220008CDCCCCCC100000203A
:10159000542200086822000884220008704730B5F1
:1015A0001446002C9BB005461A4605DA8B230360CF
:1015B0004FF0FF301BB030BD4FF40273ADF80C306C
:1015C00014BF04F1FF332346029305934FF6FF73D4
:1015D00000910491ADF80E3069461E9B00F082F830
:1015E000431CBCBF8B232B60002CE3D0009B00224C
:1015F0001A70DFE707B5009313460A460146034811
:101600000068FFF7CCFF03B05DF804FB3800002052
:10161000014B1868704700BF38000020034613F8DC
:10162000012B002AFBD1181A013870472DE9F04729
:101630008E681F46BE420B6882460C4690462DD8E7
:10164000B1F90C2012F4906F26D06569096905EB99
:101650004505A3EB010905EBD5757B1C4B446D10CB
:101660009D4238BF1D46530527D5294600F0BAFBD9
:10167000064660B321694A4600F03AFBA38923F489
:10168000906343F08003A381266165614E44A5EB1E
:1016900009052660A5603E46BE4200D93E46206848
:1016A0003246414600F0B4FAA3689B1BA36023684E
:1016B000334423600020BDE8F0872A4600F01EFC7A
:1016C00006460028E0D12169504600F01FFB0C239C
:1016D000CAF80030A38943F04003A3814FF0FF30E4
:1016E000E9E700002DE9F04F98468B891B069DB075
:1016F00007460D46144610D50B6973B9402100F01A
:1017000071FB2860286130B90C233B604FF0FF303B
:101710001DB0BDE8F08F40236B61002309932023A7
:101720008DF82930CDF80C803023DFF89C818DF8BE
:101730002A304FF0010923469A4613F8012B0AB1CB
:10174000252AF9D1BAEB040B0BD05B462246294679
:101750003846FFF76BFF013000F0A780099A5A4422
:1017600009929AF80030002B00F09F8000234FF080
:10177000FF32CDE905230AF1010A049307938DF89E
:1017800053301A935446052214F8011B4E4800F0BA
:101790005FFA049AD8B9D00644BF20238DF853309D
:1017A000110744BF2B238DF853309AF800302A2BB1
:1017B00015D0079A544600204FF00A0C214611F824
:1017C000013B303B092B4BD9B0B1079214E0A0EBA1
:1017D000080309FA03F313430493A246D2E7039BD9
:1017E000191D1B680391002BBBBF5B4242F0020234
:1017F00007930793B8BF049223782E2B0AD16378FE
:101800002A2B32D1039B1A1D1B68039243EAE37310
:1018100002340593DFF8B4A021780322504600F08B
:1018200017FA38B1049BA0EB0A0040228240134310
:101830000134049314F8011B25488DF82810062262
:1018400000F006FA002836D0224B1BBB039B07335F
:1018500023F0070308330393099B334409936AE792
:101860000CFB02320C460120A8E70023013405934B
:1018700019464FF00A0C204610F8012B303A092A7D
:1018800003D9002BC6D00591C4E70CFB0121044607
:101890000123F0E703AB00932A460F4B04A9384617
:1018A000AFF30080421C0646D6D1AB895B063FF5FC
:1018B0002DAF09982CE703AB00932A46064B04A9E9
:1018C000384600F079F8EDE7A0220008A6220008CB
:1018D000AA220008000000002D1600082DE9F0479C
:1018E000164698468A680B69DDF820909342B8BF87
:1018F0001346336091F8432007460C460AB1013382
:1019000033602368990642BF336802333360256829
:1019100015F0060506D104F1190AE36832689B1A2E
:10192000AB4226DC94F843302268003B18BF012309
:1019300092062BD404F1430241463846C847013091
:101940001ED02368226903F00603042B02BFE5685A
:101950003368ED1AA3680CBF25EAE57500259342AC
:10196000C4BF9B1AED1800261A34B5421AD10020C4
:1019700008E00123524641463846C847013003D1AA
:101980004FF0FF30BDE8F0870135C6E7E1185A1C7B
:10199000302081F84300224494F8451082F8431027
:1019A0000233C7E70123224641463846C847013083
:1019B000E6D00136D9E700002DE9FF470F7E0C9EE7
:1019C000782F914680460C469A4601F1430207D88B
:1019D000622F0AD8002F00F0DD80582F00F0C3805E
:1019E00004F1420684F842703AE0A7F16303152B34
:1019F000F6D801A151F823F0511A0008651A000821
:101A0000E1190008E1190008E1190008E1190008CE
:101A1000651A0008E1190008E1190008E119000839
:101A2000E11900087B1B0008F31A0008331B0008AB
:101A3000E1190008E11900089D1B0008E1190008E0
:101A4000F31A0008E1190008E11900083B1B00081F
:101A500033681A1D1B68326004F1420684F8423074
:101A60000123A8E031682368081D30601E0601D5F7
:101A70000D6803E05D06FBD5B1F900506168002DEB
:101A800078DA2D20002984F84300A1602DDA5E4821
:101A90006D420A231646B5FBF3F103FB1157C75DF0
:101AA00006F8017D2F46BB420D46F4D9082B0BD119
:101AB0002368DF0708D5236961689942DEBF3023B8
:101AC00006F8013C06F1FF36921B2261CDF800A01A
:101AD0004B4603AA21464046FFF700FF01306FD175
:101AE0004FF0FF3004B0BDE8F08723F0040323601B
:101AF000CDE721683368080653F8045B02D4490631
:101B000048BFADB26F2F4048336014BF0A2308238B
:101B1000002184F843106668A660002EBADB2168B5
:101B200021F004012160002DB4D1002EB2D116465F
:101B3000BCE7236843F0200323603448782784F807
:101B40004570236831681F0651F8045B02D45F06B4
:101B500048BFADB23160D90744BF43F020032360D2
:101B60001DB11023D4E72848E9E7236823F02003B8
:101B70002360F6E724480A23CDE7336825686169C6
:101B8000181D30602E061B6801D5196002E068063A
:101B9000FBD5198000232361164697E733681A1D89
:101BA00032601E6862680021304600F051F808B1CA
:101BB000801B606063682361002384F8433085E7FD
:101BC0002369324649464046D047013088D02368D1
:101BD0009B0714D4E068039B9842B8BF184681E77E
:101BE0000123324649464046D04701303FF478AFA2
:101BF0000135E36803995B1AAB42F1DCEAE70025A3
:101C000004F11906F5E700BFB1220008C22200085E
:101C1000884210B501EB020402D98442234607D85A
:101C2000431EA14208D011F8012B03F8012FF8E759
:101C3000024401468A4200D110BD13F8014D02F85A
:101C4000014DF7E700000000000000000000000068
:101C500001F0FF01102A2BDB10F0070F08D010F85D
:101C6000013B013A8B422DD010F0070F42B3F6D161
:101C7000F0B441EA012141EA014122F007047FF07A
:101C800000070023F0E80256083C85EA010586EAD1
:101C9000010685FA47F5A3FA87F586FA47F6A5FA0D
:101CA00087F68EB9EED1F0BC01F0FF0102F0070219
:101CB00032B110F8013B013A83EA010313B1F8D1C4
:101CC0000020704701387047002D06BF35460338A5
:101CD000073815F0010F07D1013015F4807F02BFDE
:101CE000013015F4C03F0130F0BC0138704700BF2F
:101CF0000A44914200F1FF3300D1704710B511F84A
:101D0000014B03F8014F9142F9D110BD38B505469A
:101D1000002941D051F8043C0C1F002BB8BFE41837
:101D200000F0E0F81D4A136833B963601460284678
:101D3000BDE8384000F0DCB8A34208D9206821187B
:101D40008B4201BF19685B6809182160EDE71A46EC
:101D50005B680BB1A342FAD911685018A0420BD1AD
:101D600020680144501883421160E0D118685B6814
:101D7000536008441060DAE702D90C232B60D6E7E1
:101D8000206821188B4204BF19685B68636004BF38
:101D9000091821605460CAE738BD00BF280100203F
:101DA00070B50F4E0C463168054611B900F0D4F8F5
:101DB00030602146284600F0CFF8431C03D14FF095
:101DC000FF34204670BDC41C24F00304A042F8D0A8
:101DD000211A284600F0C0F80130F2D1EFE700BF29
:101DE000240100202DE9F843CD1C25F0030508351A
:101DF0000C2D38BF0C25002D064601DBA94204D965
:101E00000C2333600020BDE8F883DFF8D48000F0B5
:101E100069F8D8F800301C4644BB29463046FFF725
:101E2000BFFF431C044658D1D8F800402746002F76
:101E300043D1002C4BD023683946304604EB0309CC
:101E400000F08AF8814542D121686D1A2946304652
:101E5000FFF7A6FF01303AD023682B442360D8F85F
:101E600000305A6862BBC8F800700FE02268521B4D
:101E700020D40B2A17D96119A342256018BF5960D5
:101E8000636808BFC8F8001062514B60304600F02C
:101E90002FF804F10B00231D20F00700C21A1CBF0D
:101EA0001B1AA350AFE76268A3420CBFC8F800201A
:101EB0005A60EBE723466468AEE73C467F68B6E7C6
:101EC0001A465B68A342FBD100235360DEE70C2374
:101ED0003360304600F00CF894E70560D6E700BFA9
:101EE00028010020014800F047B800BF2C01002065
:101EF000014800F042B800BF2C0100202DE9F0415C
:101F0000804615460C4621B9BDE8F0411146FFF761
:101F100069BF2AB9FFF7FAFE00242046BDE8F08128
:101F200000F02CF88542064602D8B5EB500FF4D8E5
:101F300029464046FFF756FF07460028ECD0B54239
:101F40002A46214628BF3246FFF7D2FE21464046A8
:101F5000FFF7DCFE3C46E0E738B5064D00230446BB
:101F600008462B60FFF76AF8431C02D12B6803B1C7
:101F7000236038BD9C0000207047704751F8043C36
:101F8000181F002BBCBF0B58C01870472E2E2F7384
:101F9000797374656D2F7372632F73746D3332664A
:101FA000342D68616C2F73746D3332663478785FCA
:101FB00068616C5F636F727465782E630000000067
:101FC0002E2E2F73797374656D2F7372632F737454
:101FD0006D333266342D68616C2F73746D333266E5
:101FE0003478785F68616C5F6770696F2E6300009A
:101FF0002E2E2F73797374656D2F7372632F737424
:102000006D333266342D68616C2F73746D333266B4
:102010003478785F68616C5F7263632E63000000E0
:10202000000000000102030401020304060708097E
:1020300061626F727428292C2065786974696E67F3
:102040002E2E2E006173736572745F706172616D04
:102050002829206661696C65643A2066696C652090
:10206000222573222C206C696E652025640A0000ED
:10207000537461636B206672616D653A0A000000FB
:10208000205230203D2020253038580A0000000022
:10209000205231203D2020253038580A0000000011
:1020A000205232203D2020253038580A0000000000
:1020B000205233203D2020253038580A00000000EF
:1020C00020523132203D20253038580A00000000CF
:1020D000204C52203D2020253038580A00000000B6
:1020E000205043203D2020253038580A00000000B1
:1020F00020505352203D20253038580A000000005F
:102100004653522F4641523A0A000000204346539C
:1021100052203D2020253038580A000020484653E0
:1021200052203D2020253038580A000020444653D4
:1021300052203D2020253038580A000020414653C7
:1021400052203D2020253038580A0000204D4D46B1
:102150004152203D20253038580A00002042464197
:1021600052203D2020253038580A00004D69736305
:102170000A000000204C522F4558435F52455455E9
:10218000524E3D20253038580A0000005B486172ED
:10219000644661756C745D0A000000005B427573F3
:1021A0004661756C745D0A005B55736167654661D5
:1021B000756C745D0A000000000000000000000063
:1021C00001020304060708094368756F6E672074EF
:1021D00072696E682064696575206B6869656E2038
:1021E000717561742067696F000000004E68696551
:1021F0007420646F203E203332207469656E20683D
:10220000616E682062617420717561742067696F06
:102210002C204E6869657420646F203C2033322086
:1022200074617420717561742067696F210000000A
:1022300053797374656D20636C6F636B3A202575F9
:1022400020487A0A000000005365636F6E64202501
:10225000750A000054656D70657261747572653A37
:102260002025640A00000000424154205155415489
:102270002047494F2C204C45442058414E4820428D
:102280004154210054415420515541542047494F55
:102290002C204C45442058414E48205441542100A4
:1022A000232D302B2000686C4C006566674546473F
:1022B00000303132333435363738394142434445C2
:1022C0004600303132333435363738396162636431
:1022D000656600001000000000000000017A520056
:1022E000027C0E011B0C0D00100000001800000005
:1022F0002CF3FFFF100000000000000010000000A1
:1023000000000000017A5200027C0E011B0C0D003F
:10231000380000001800000038F9FFFF9E000000A0
:1023200000510E1084048503860287015BC7C6C571
:10233000C40E004C0A420B0A420B0E1084048503A3
:0C2340008602870151C7C6C5C40E00000C
:08234C00D0F2FF7F0100000048
:102354007856341298000020000000000024F40095
:102364000A000000370000002800000016000000EA
:102374001E0000002A0000001E00000024000000CF
:102384001F0000001A0000003C00002000000000B4
:102394000000000068000000D00000000000000001
:1023A4000000000000000000000000000000000029
:1023B4000000000000000000000000000000000019
:1023C4000000000000000000000000000000000009
:0C23D40000000000000000003254769869
:040000050800018965
:00000001FF
